:1000000010C017C016C015C014C013C012C011C054
:1000100010C00FC00EC00DC00CC00BC00AC009C07C
:1000200008C011241FBECFE5D1E0DEBFCDBF02D096
:100030002BC0E6CF80E886BD84E086BD8FEF8ABB0B
:1000400087BB83EC80BF82E083BF81EE86BF81E007
:100050008BBB09C083EC99E00197F1F700C0000069
:1000600086B78F5F86BF86B78F3FA1F709C081EE45
:1000700094E00197F1F700C0000086B7815086BF79
:0C00800086B78111F4CFEFCFF894FFCFCA
:00000001FF
