S00E000050574D3434412E7372656379
S113000010C017C016C015C014C013C012C011C050
S113001010C00FC00EC00DC00CC00BC00AC009C078
S113002008C011241FBECFE5D1E0DEBFCDBF02D092
S113003027C0E6CF8FEF8ABB87BB83E880BF82E00F
S113004083BF81EE86BF81E08BBB09C08FEC97E054
S11300500197F1F700C0000086B78F5F86BF86B7AF
S11300608F3FA1F709C087EE93E00197F1F700C035
S1130070000086B7815086BF86B78111F4CFEFCFD9
S1070080F894FFCF1E
S9030000FC
